:100000000C942A000C9447000C9447000C94470071
:100010000C9447000C9447000C9447000C94470044
:100020000C9447000C9447000C9447000C94470034
:100030000C9447000C9447000C9447000C94470024
:100040000C9447000C9447000C9447000C94470014
:100050000C94470011241FBECFE5D8E0DEBFCDBF12
:1000600013E0A0E6B0E0EAE7F7E002C005900D92E9
:10007000AA33B107D9F723E0AAE3B3E001C01D9288
:10008000A035B207E1F70E9410020C94BB030C9458
:100090000000B89A0895C09A85E08A95F1F7C09853
:1000A0000895B19916C081E090E0A0E0B0E0B19968
:1000B0000BC00196A11DB11D803C27E2920729E0EB
:1000C000A207B105A1F73CC0803C9742A940B10509
:1000D000D1F11FBC82E08EBD1DBC1CBCB19B20C0F9
:1000E0008CB59DB581369A4ED8F481E090E0A0E0C1
:1000F000B0E0B19B10C02CB53DB521363A4E58F456
:100100000196A11DB11D803C27E2920729E0A207BC
:10011000B10579F71BC0803C9742A940B105C9F0F1
:100120008CB59DB5A0E0B0E01EBC81362AEE9207EA
:10013000A105B10588F4B695A7959795879508957B
:1001400084EF9FEF089584EF9FEF089583EF9FEF73
:10015000089583EF9FEF089583EF9FEF0895CF9366
:10016000DF93ECE3F3E020914E0330914F03E9017C
:10017000CC0FDD1F220F331F220F331F220F331F1F
:10018000C20FD31FCE52DD4FA0E9B2E020E030E035
:10019000009719F4118210822AC08130910559F418
:1001A000223031051CF41182108221C0488159810E
:1001B000518340831CC08230910531F44D915C9194
:1001C00011975183408313C08330910539F41E96F3
:1001D0004D915C911F975183408309C084309105F4
:1001E00031F45C964D915C915D97518340832F5F14
:1001F0003F4F3296229612962730310549F6DF910D
:10020000CF91089542E350E070E060E085B38C7FC9
:10021000826085BB872F962F9C0122953295307F77
:100220003227207F3227282B22BB88309105DCF52E
:100230009C0127703078332334F421503109286F22
:100240003F6F2F5F3F4FE0914003F0914103EE0F6E
:10025000FF1FEE0FFF1FEE0FFF1FE20FF31FEE0F4A
:10026000FF1FE052FF4F0190F081E02DF595E795DB
:10027000F595E795F595E795F595E795A0913E03FA
:10028000B0913F03AA0FBB1FAA0FBB1FAA0FBB1F32
:100290002A0F3B1FD901AA0FBB1FA052BF4F2C91A1
:1002A000E22BEBBB3AC09C0127703078332334F447
:1002B00021503109286F3F6F2F5F3F4FE09144037A
:1002C000F0914503EE0FFF1FEE0FFF1FEE0FFF1F14
:1002D000E20FF31FEE0FFF1FE052FF4F0190F0817E
:1002E000E02DF595E795F595E795F595E795F59565
:1002F000E795A0914203B0914303AA0FBB1FAA0F39
:10030000BB1FAA0FBB1F2A0F3B1FD901AA0FBB1F80
:10031000A052BF4F2C91E22BEBBB28EC2A95F1F7B2
:1003200001968031910509F077CF85B38C7F81608C
:1003300085BB872F962F9C0122953295307F3227DF
:10034000207F3227282B22BB88309105DCF59C01C9
:1003500027703078332334F421503109286F3F6FF0
:100360002F5F3F4FE0914803F0914903EE0FFF1FCD
:10037000EE0FFF1FEE0FFF1FE20FF31FEE0FFF1F29
:10038000E052FF4F0190F081E02DF595E795F5954E
:10039000E795F595E795F595E795A0914603B0911A
:1003A0004703AA0FBB1FAA0FBB1FAA0FBB1F2A0F11
:1003B0003B1FD901AA0FBB1FA052BF4F2C91E22BAC
:1003C000EBBB1EC0E0913A03F0913B039C01277008
:1003D0003078332334F421503109286F3F6F2F5F79
:1003E0003F4FEE0FFF1FEE0FFF1FEE0FFF1F2E0FF1
:1003F0003F1FF901EE0FFF1FE05AFF4F20812BBB7B
:1004000026EA2A95F1F700C001968031910509F09E
:1004100092CF415051094115510509F0F7CE089589
:1004200010924F0310924E03CFEFC1BBCABBC4BBA7
:100430000E944900CABBC4BB33243394212CD12C65
:10044000C12CCEE3D3E00AE413E0ED2CFC2C0F2EFC
:10045000F0E44F2EF3E05F2EF02D932C822C0F2E24
:10046000F6E07F2EF02D612C30923A0320923B0370
:10047000AD2CBC2C0E944B000E9451009C01AFE9A6
:10048000B6E40E94AC03929582958F7089279F7085
:100490008927BC01882777FD8095982F0E94490302
:1004A0002DEC3CEC4CEC5DE30E9484031816ACF49C
:1004B000A114B10429F482E090E00E94AF0012C0C0
:1004C0008D2D9C2D0E94AF00D0924C03C0924D0305
:1004D000D0924A03C0924B0309C0A114B10411F495
:1004E000A32CB22CC5010E940201C4CF0E944B0074
:1004F0000E9451009C01AFE9B6E40E94AC039295C2
:1005000082958F7089279F708927BC01882777FD86
:100510008095982F0E9449032DEC3CEC4CEC5DE358
:100520000E94840318160CF051C0AE9A88819981FC
:10053000892B09F454C060914C0370914D03809154
:100540004E0390914F039C01220F331FDC01AA0F31
:10055000BB1FAA0FBB1FAA0FBB1FA20FB31FAA521C
:10056000BD4FF2018E2D9F2D2D913D9148815981D6
:100570002417350751F440815181452B31F43183E3
:1005800020836F5F7F4F892D982D3296E017F107FA
:1005900059F770934D0360934C03198218820097AA
:1005A00001F520913A0330913B032F5F3F4F309389
:1005B0003B0320933A0320914A0330914B032F5F72
:1005C0003F4F30934B0320934A030BC0AE98888172
:1005D00099810196998388838E2D9F2D02C08E2D3F
:1005E0009F2D0E94020180914C0390914D0305972D
:1005F00041F080914A0390914B03069709F076CF22
:1006000018C083E090E00E94AF00D0923A03C092FD
:100610003B030F2EF9E0AF2EF02DB12C8D2D9C2D2C
:100620000E94020181E0A81AB108A114B104B1F737
:1006300024C070923A0360923B0381E090E00E94F4
:10064000AF00A72CB62C8D2D9C2D0E94020181E0BD
:10065000A81AB108A114B104B1F784E090E00E9497
:10066000AF00A72CB62C8D2D9C2D0E94020181E09D
:10067000A81AB108A114B104B1F780914E0390916A
:100680004F03019690934F0380934E03EDCEE89471
:1006900009C097FB3EF490958095709561957F4FCA
:1006A0008F4F9F4F9923A9F0F92F96E9BB27939578
:1006B000F695879577956795B795F111F8CFFAF488
:1006C000BB0F11F460FF1BC06F5F7F4F8F4F9F4FB9
:1006D00016C0882311F096E911C0772321F09EE817
:1006E000872F762F05C0662371F096E8862F70E07D
:1006F00060E02AF09A95660F771F881FDAF7880F57
:100700009695879597F9089503D008F48FEF08958B
:10071000990F0008550FAA0BE0E8FEEF1616170612
:10072000E807F907C0F012161306E407F50798F07A
:10073000621B730B840B950B39F40A2661F0232B93
:10074000242B252B21F408950A2609F4A140A6950F
:100750008FEF811D811D0895A29FB001B39FC0013D
:10076000A39F700D811D1124911DB29F700D811DDD
:0A0770001124911D0895F894FFCFA5
:10077A007C001000440038001000100028004400DB
:10078A007C001000000000000000000000000000D3
:10079A007C001000000010001000000000000000A3
:1007AA007C00100000001000100020004000000033
:1007BA007C00100000001000100028004400000017
:1007CA007C00100000001C001000280044000000FB
:1007DA007C00100000007C0010002800440000008B
:1007EA007C00100010007C0010002800440000006B
:1007FA00000000000000000000000000F0000000FF
:10080A00000060009000F0009000900000000000DE
:10081A000000E0009000E0009000E000000000000E
:10082A000000F000800080008000F000000000005E
:10083A000000E000900090009000E000000000003E
:10084A000000F0008000F0008000F00000000000CE
:10085A000000F0008000E00080008000000000003E
:10086A000000F0008000B0009000F00000000000DE
:10087A00000090009000F00090009000000000003E
:10088A000000E000400040004000E00000000000DE
:10089A000000F00020002000A0006000000000001E
:1008AA0000009000A000C000A0009000000000001E
:1008BA0000008000800080008000F000000000003E
:1008CA0000009000F00090009000900000000000EE
:1008DA0000009000D000B00090000000000000006E
:1008EA00000060009000900090006000000000008E
:1008FA000000E0009000A0008000800000000000DE
:10090A00000060009000D000B0003000000000003D
:10091A000000E0009000E000A0009000000000004D
:10092A000000F0008000F0001000F000000000005D
:10093A000000F0006000600060006000000000003D
:10094A0000009000900090009000F000000000006D
:10095A0000009000900090009000600000000000ED
:10096A000000900090009000F0009000000000004D
:10097A00000090006000600090000000000000008D
:10098A0000009000900090006000600000000000ED
:10099A000000F00020004000F0000000000000000D
:1009AA0000001300140001001200140000000000EF
:1009BA0019000F001500170009000E0000000800BA
:1009CA0001000E00070005000400000008000100F5
:1009DA000E000700050004000000080001000E00D8
:1009EA0007000500040010000500010003000500CF
:1009FA000D00010007000900030006000C000100B9
:100A0A00130008000300010003000800050013009A
:100A1A001400050001000B001200080019000D0067
:100A2A00050013000E000F00170019000A000F003E
:100A3A000B00050012000F000600140005000E004E
:0A0A4A000C000F00070001000E0071
:00000001FF
